{
  "address": "0x104EcEfcBeFe0E6DdF7948b7a660927f2A2D00D0",
  "abi": [
    {
      "inputs": [],
      "stateMutability": "nonpayable",
      "type": "constructor"
    },
    {
      "inputs": [
        {
          "internalType": "uint256",
          "name": "amount",
          "type": "uint256"
        }
      ],
      "name": "fundContract",
      "outputs": [],
      "stateMutability": "payable",
      "type": "function"
    },
    {
      "inputs": [],
      "name": "getTokenAmount",
      "outputs": [
        {
          "internalType": "uint256",
          "name": "",
          "type": "uint256"
        }
      ],
      "stateMutability": "view",
      "type": "function"
    }
  ],
  "transactionHash": "0xae79e4a2798a242b47538e634b9fd89fe2ec2eddd8ad904eac46f8965452bd0f",
  "args": [],
  "numDeployments": 1,
  "solcInputHash": "a1eebc17282d8617c31dc2d4f9115442",
  "bytecode": "0x608060405234801561001057600080fd5b50336000806101000a81548173ffffffffffffffffffffffffffffffffffffffff021916908373ffffffffffffffffffffffffffffffffffffffff1602179055506101b3806100606000396000f3fe6080604052600436106100295760003560e01c80633519a2f81461002e57806375f91ec81461004a575b600080fd5b61004860048036038101906100439190610126565b610075565b005b34801561005657600080fd5b5061005f6100e1565b60405161006c9190610162565b60405180910390f35b600160009054906101000a900473ffffffffffffffffffffffffffffffffffffffff1673ffffffffffffffffffffffffffffffffffffffff166108fc829081150290604051600060405180830381858888f193505050501580156100dd573d6000803e3d6000fd5b5050565b6000600254905090565b600080fd5b6000819050919050565b610103816100f0565b811461010e57600080fd5b50565b600081359050610120816100fa565b92915050565b60006020828403121561013c5761013b6100eb565b5b600061014a84828501610111565b91505092915050565b61015c816100f0565b82525050565b60006020820190506101776000830184610153565b9291505056fea2646970667358221220fabbcfc03bfd88e8c2c96239e92175f0b1908dd3bebd96f3a0dfd48925de013364736f6c63430008110033",
  "devdoc": {
    "kind": "dev",
    "methods": {},
    "version": 1
  },
  "userdoc": {
    "kind": "user",
    "methods": {},
    "version": 1
  },
  "storageLayout": {
    "storage": [
      {
        "astId": 3,
        "contract": "contracts/Token.sol:Token",
        "label": "owner",
        "offset": 0,
        "slot": "0",
        "type": "t_address"
      },
      {
        "astId": 5,
        "contract": "contracts/Token.sol:Token",
        "label": "contractAddress",
        "offset": 0,
        "slot": "1",
        "type": "t_address_payable"
      },
      {
        "astId": 7,
        "contract": "contracts/Token.sol:Token",
        "label": "tokenAmount",
        "offset": 0,
        "slot": "2",
        "type": "t_uint256"
      }
    ],
    "types": {
      "t_address": {
        "encoding": "inplace",
        "label": "address",
        "numberOfBytes": "20"
      },
      "t_address_payable": {
        "encoding": "inplace",
        "label": "address payable",
        "numberOfBytes": "20"
      },
      "t_uint256": {
        "encoding": "inplace",
        "label": "uint256",
        "numberOfBytes": "32"
      }
    }
  }
}